{
  "_format": "hh-sol-artifact-1",
  "contractName": "Vendor",
  "sourceName": "contracts/Vendor.sol",
  "abi": [
    {
      "inputs": [
        {
          "internalType": "address",
          "name": "tokenAddress",
          "type": "address"
        }
      ],
      "stateMutability": "nonpayable",
      "type": "constructor"
    },
    {
      "inputs": [],
      "name": "buyTokens",
      "outputs": [],
      "stateMutability": "payable",
      "type": "function"
    },
    {
      "inputs": [],
      "name": "tokensPerEth",
      "outputs": [
        {
          "internalType": "uint256",
          "name": "",
          "type": "uint256"
        }
      ],
      "stateMutability": "view",
      "type": "function"
    }
  ],
  "bytecode": "0x608060405234801561001057600080fd5b506040516101cd3803806101cd8339818101604052602081101561003357600080fd5b5051600080546001600160a01b039092166001600160a01b0319909216919091179055610168806100656000396000f3fe6080604052600436106100295760003560e01c8063cbdd69b51461002e578063d0febe4c14610055575b600080fd5b34801561003a57600080fd5b5061004361005f565b60408051918252519081900360200190f35b61005d610064565b005b606481565b662386f26fc1000034116100af576040805162461bcd60e51b815260206004820152600d60248201526c09ccacac840605c6062408aa89609b1b604482015290519081900360640190fd5b600080546040805163a9059cbb60e01b81523360048201526001602482015290516001600160a01b039092169263a9059cbb926044808401936020939083900390910190829087803b15801561010457600080fd5b505af1158015610118573d6000803e3d6000fd5b505050506040513d602081101561012e57600080fd5b505056fea2646970667358221220155121a22255c82217381736d6f5adad5b0bc21bd323666bd9f533869f8966c764736f6c63430006070033",
  "linkReferences": {},
  "deployedLinkReferences": {}
}